:10000000803102288731E92F2000100E890C013938
:100010000800FE0012001E00FE0B0A280034320009
:1000200091019201930194019501960108006230BB
:10003000320099009B019D0103309F009E01080042
:10004000483020009800960195019012803097006A
:100050000800FE34FD34FB34F734EF34DF34BF34B2
:100060007F340134F40000308031CF208031220011
:100070000E1074088F31FB27803122000E148F314F
:10008000F42780310800F40000308031CF20803127
:1000900022008E1074088F31FB27803122008E14CD
:1000A0008F31F4278031080080310F20803180317A
:1000B0006720803180319B20803180311720803152
:1000C0008F31F727803180312020803108000F30B8
:1000D0003C00A0000D30A10018303D009F001930F9
:1000E0009C004030240094009501013092002100D2
:1000F0008D13240095120800F401F501701C81286D
:10010000822886287208F4077308F53D0130F2351D
:10011000F30D890B87280130F136F00C890B8C2800
:1001200070087104031D952896287E287508F10033
:100130007408F000080022008C018D018E01373018
:1001400021008C0060308D00FC308E00FB302300DD
:100150008E0050308D0037308C0024008D018C01D2
:100160008E0125008C018D018E01373026008C0018
:10017000F0308D00FF308E003F3027008C00F030D3
:100180008D00FF308E000F303C00A00018303D0085
:100190009F0019309C000D303C00A1000800F300C6
:1001A0002400951AD428D5281C297308F000F101E1
:1001B000F035F10DF035F10D01307007840090300D
:1001C000713D8500000894007308F000F101F035DE
:1001D000F10DF035F10D0030700784009030713D65
:1001E00085000008950096017308F000F101F035D4
:1001F000F10DF035F10D0230700784009030713D43
:100200008500000892007308F000F101F035F10D4F
:10021000F035F10D0330700784009030713D85009A
:100220000008F200F20CF20C21000D0872067F3972
:1002300072068D00240095160800FE3080314320A0
:1002400081313E308600003087002030840000304D
:1002500085000830F50016001A00F50B2B29200048
:10026000AC01AD0120002C08203E8600870101086A
:100270008031432081312000AA01AB012B08803A54
:10028000F50080307502031D472908302A02031C3F
:100290004A294B294C296A290130F5000030F60023
:1002A00020002A0A5529F535F60D890B53297508C2
:1002B000A8007608A9002C08473E8600870101089F
:1002C000280580313220813101302000AA0700301A
:1002D000AB3D3E2900308031322081310130200099
:1002E000AC070030AD3D2D08803AF5008030750236
:1002F000031D7C2908302C02031C7F298029322908
:1003000008008031542081312000B801B401B501CA
:10031000BD01BC0120000E198E298F299A293D08A4
:10032000031D932994299A299012BD01BD0AB40195
:10033000B5019F29BD010130F7007708BC07803166
:1003400004208131003A0319A629A729B8292000E1
:100350003D080319AC29AD29B2290130F70077080F
:10036000B807B729B8010130B4070030B53D901285
:10037000323020003802031CBE29BF29CB293D089A
:10038000031DC329C429CB293C082E3E86008701C2
:100390008101810A9A2B04303802031CD029D1290B
:1003A000DC293D08031DD529D629DC293C082E3E31
:1003B0008600870181019A2BEA30350260300319EB
:1003C0003402031CE429E5299A2B3D08031DE92981
:1003D000EA299A2BB901BA01B601B7012E08031D0B
:1003E000F229F329072A2F03031DF729F829072AE1
:1003F0003003031DFC29FD29072A3108031D012AAA
:10040000022A072A4D30B9000030BA00192BBB016F
:100410003B2A3B082E3E860087010103031D112A5B
:10042000122A1B2A0930F7007708B3000130F700C1
:100430007708B607212AB301B30A0130F70077081D
:10044000B7073308F700F8017708F0007808F100E3
:100450003B08F900FA017908F2007A08F3008031CC
:100460007C20813170082000B9077108BA3D013045
:10047000F7007708BB073B083C020318402A412AD3
:10048000092A36083706031D462A472A582AFF300C
:10049000F000FF30F1003A08F3003908F200803133
:1004A0007C20813171082000BA007008B900192B36
:1004B0003608370203185D2A5E2A642A0130B935EE
:1004C000BA0D890B5F2A192B192B61308331A023B8
:1004D0008131962B62308331A0238131962B63309A
:1004E0008331A0238131962B64308331A023813165
:1004F000962B65308331A0238131962B6630833172
:10050000A0238131962B67308331A0238131962B34
:1005100068308331A0238131962B69308331A02349
:100520008131962B6A308331A0238131962B6B3039
:100530008331A0238131962B6C308331A02381310C
:10054000962B6D308331A0238131962B6E30833111
:10055000A0238131962B6F308331A0238131962BDC
:1005600070308331A0238131962B71308331A023E9
:100570008131962B72308331A0238131962B7330D9
:100580008331A0238131962B74308331A0238131B4
:10059000962B75308331A0238131962B76308331B1
:1005A000A0238131962B77308331A0238131962B84
:1005B00078308331A0238131962B79308331A02389
:1005C0008131962B7A308331A0238131962B3130C3
:1005D0008331A0238131962B32308331A0238131A6
:1005E000962B33308331A0238131962B34308331E5
:1005F000A0238131962B35308331A0238131962B76
:1006000036308331A0238131962B37308331A023BC
:100610008131962B38308331A0238131962B3930AC
:100620008331A0238131962B30308331A023813157
:10063000962B3A08003A0319242B013A0319862B0A
:10064000FE3A03198B2B962B3908013A0319792AA4
:10065000023A03198D2A053A0319BF2A0F3A0319E2
:10066000C42A033A0319882A013A0319A62A053A2B
:100670000319742A013A0319FB2A1C3A0319652A43
:10068000053A0319BA2A013A0319002B0D3A031946
:100690009C2A043A0319C92A3C3A03197E2A053ACE
:1006A0000319052B0D3A0319CE2A1C3A0319A12A66
:1006B000013A0319F62A0B3A0319832A703A0319EF
:1006C000972A013A0319B02A1F3A03196A2A053AF0
:1006D0000319F12A0B3A0319D32A303A0319AB2A2A
:1006E000123A03190A2BFA3A0319B52A103A0319D8
:1006F000DD2A303A0319922A1A3A03190F2B603A6D
:100700000319EC2A203A0319E72A962B39080E3AE6
:100710000319142B962B3908CE3A0319D82A183A04
:1007200003196F2A083A0319E22A962B2000BC010C
:10073000B401B50181311D2181318A29803102281E
:10074000F200992E2000CE013C30F0007008CD0060
:100750004630F0007008CC004A30F0007008CB0042
:100760005230F0007008CA006230F0007008C90012
:100770003C30F0007008C800C7015D2F2000CE019A
:100780000E30F0007008CD001630F0007008CC007C
:100790002630F0007008CB004630F0007008CA0028
:1007A0000630F0007008C9000630F0007008C8007C
:1007B000C7015D2F2000CE017E30F0007008CD0013
:1007C0000230F0007008CC007E30F0007008CB00E2
:1007D0007E30F0007008CA004030F0007008C90098
:1007E0007E30F0007008C800C7015D2F2000CE01E8
:1007F0007E30F0007008CD000230F0007008CC00B0
:100800007E30F0007008CB007E30F0007008CA0027
:100810000230F0007008C900F02B2000CE014230F9
:10082000F0007008CD004230F0007008CC007E303F
:10083000F0007008CB007E30F0007008CA00023073
:10084000F0007008C9000230F0007008C800C7014D
:100850005D2F2000CE017E30F0007008CD004030CA
:10086000F0007008CC00002C2000CE017E30F0009B
:100870007008CD004030F0007008CC007E30F000F1
:100880007008CB007E30F0007008CA004230F000E3
:100890007008C900F02B2000CE017E30F0007008F7
:1008A000CD000630F0007008CC000C30F00070086D
:1008B000CB001830F0007008CA003030F00070082B
:1008C000C9006030F0007008C800C7015D2F20002B
:1008D000CE013C30F0007008CD004230F0007008CE
:1008E000CC003C30F0007008CB003C30F0007008C9
:1008F000CA004230F0007008C900B82B2000CE01B9
:100900007E30F0007008CD004230F0007008CC005E
:10091000002C2000CE017E30F0007008CD00423067
:10092000F0007008CC007E30F0007008CB00423040
:10093000F0007008CA004230F0007008C900423070
:10094000F0007008C800C7015D2F2000CE017C3088
:10095000F0007008CD004230F0007008CC007C3010
:10096000F0007008CB004230F0007008CA0042303E
:10097000F0007008C9007C30F0007008C800C701A2
:100980005D2F2000CE017E30F0007008CD00403099
:10099000F0007008CC004030F0007008CB00403010
:1009A000F0007008CA00EC2B2000CE017C30F00073
:1009B0007008CD004230F0007008CC004230F000EA
:1009C0007008CB00B32C2000CE017E30F000700800
:1009D000CD004030F0007008CC00E42B2000CE01A8
:1009E0007E30F0007008CD004030F0007008CC0080
:1009F0007E30F0007008CB007E30F0007008CA0036
:100A00004030F0007008C9004030F0007008C800A5
:100A1000C7015D2F2000CE017E30F0007008CD00B0
:100A20004030F0007008CC005E30F0007008CB0061
:100A30005230F0007008CA00462C2000CE0142302F
:100A4000F0007008CD008F2C2000CE013C30F0006B
:100A50007008CD001830F0007008CC001830F0009D
:100A60007008CB001830F0007008CA001830F00091
:100A70007008C900B82B2000CE011E30F0007008AD
:100A8000CD000C30F0007008CC000C30F000700885
:100A9000CB000C30F0007008CA002C30F000700859
:100AA000C900B82B2000CE014830F0007008CD00FE
:100AB0005030F0007008CC006030F0007008CB00BF
:100AC0006030F0007008CA005830F0007008C900AB
:100AD0004430F0007008C800C7015D2F2000CE012F
:100AE0004030F0007008CD00C72C2000CE017E30D1
:100AF000F0007008CD005A30F0007008CC005A3079
:100B0000F0007008CB005A30F0007008CA005A306C
:100B1000F0007008C9005A30F0007008C800C70122
:100B20005D2F2000CE014230F0007008CD00623011
:100B3000F0007008CC005230F0007008CB004A3052
:100B4000F0007008CA004630F0007008C9009F2C01
:100B50002000CE013C30F0007008CD004230F000A3
:100B60007008CC004230F0007008CB004230F0003A
:100B70007008CA00792C2000CE017E30F000700889
:100B8000CD004230F0007008CC00F82C2000CE01DF
:100B90007E30F0007008CD004230F0007008CC00CC
:100BA0004230F0007008CB004A30F0007008CA00F4
:100BB0004630F0007008C9007E30F0007008C800B0
:100BC000C701C70A5D2F2000CE017E30F0007008FB
:100BD000CD004230F0007008CC007E30F00070088C
:100BE000CB005030F0007008CA004830F0007008A8
:100BF000C900682D2000CE017E30F0007008CD00C5
:100C00004030F0007008CC007E30F0007008CB005F
:100C10000230F0007008CA00082C2000CE017E309F
:100C2000F0007008CD001830F0007008CC001830CB
:100C3000F0007008CB001830F0007008CA001830BF
:100C4000F0007008C9001830F0007008C800C70133
:100C50005D2F2000CE014230F0007008CD00AE2D97
:100C60002000CE014230F0007008CD004230F0008C
:100C70007008CC004230F0007008CB004230F00029
:100C80007008CA002430F0007008C900232E20002C
:100C9000CE015A30F0007008CD005A30F0007008D4
:100CA000CC005A30F0007008CB005A30F0007008C9
:100CB000CA005A30F0007008C900F02B2000CE01A5
:100CC0004230F0007008CD002430F0007008CC00F5
:100CD0001830F0007008CB002430F0007008CA0013
:100CE0004230F0007008C900C801C7015D2F200024
:100CF000CE014230F0007008CD002430F0007008C2
:100D0000CC00172E2000CE017E30F0007008CD0000
:100D10000430F0007008CC000830F0007008CB0000
:100D20001030F0007008CA002030F0007008C900D0
:100D3000F02B7208F000F1017108003A0319A12E9E
:100D40005D2F7008303A0319A22B013A0319BE2B0C
:100D5000033A0319DA2B013A0319F62B073A031960
:100D60000D2C013A0319292C033A0319342C013AAA
:100D700003194B2C0F3A0319672C013A03197E2CE7
:100D8000783A0319892C033A0319A52C013A03195F
:100D9000C12C073A0319D42C013A0319E32C033A66
:100DA0000319EE2C013A03190A2D0F3A03191D2DD0
:100DB000013A0319242D033A03193B2D013A031973
:100DC000522D073A03196E2D013A0319752D033A76
:100DD0000319912D013A0319A82D1F3A0319BB2DB0
:100DE000013A0319C62D033A0319E32D013A0319F9
:100DF000FA2D073A03190D2E013A0319292E033A49
:100E00000319302E013A0319472E0F3A03195E2EAB
:100E1000013A0319772E033A0319822E3B3A03193C
:100E2000892C033A0319A52C013A0319C12C073A5E
:100E30000319D42C013A0319E32C033A0319EE2CBD
:100E4000013A03190A2D0F3A03191D2D013A03190E
:100E5000242D033A03193B2D013A0319522D073A69
:100E600003196E2D013A0319752D033A0319912DBB
:100E7000013A0319A82D1F3A0319BB2D013A031992
:100E8000C62D033A0319E32D013A0319FA2D073A47
:100E900003190D2E013A0319292E033A0319302E96
:100EA000013A0319472E0F3A03195E2E013A03192E
:100EB000772E033A0319822E5D2FF401F501740891
:100EC000473E860087010108F0000730F036890BA5
:100ED000662F70080139F1007108F3007408473E6D
:100EE000860087010108F0000530F036890B752F68
:100EF00070080239F1007108F3047408473E860057
:100F000087010108F0000330F036890B842F700848
:100F10000439F1007108F3047408473E8600870124
:100F200001360839F0007008F3047408473E860063
:100F30008701010808390907F0007008F3047408F4
:100F4000473E8600870101080439F0000230F03581
:100F5000FF3E031DA72F7035F1007108F3047408DC
:100F6000473E8600870101080239F0000430F03561
:100F7000FF3E031DB72F7035F1007108F3047408AC
:100F8000473E8600870101080139F0000630F03540
:100F9000FF3E031DC72F7035F1007108F30473087D
:100FA000F0007408473E8600870170088100013018
:100FB000F4070030F53D7508803AF000803070028B
:100FC000031DE42F08307402031CE72FE82F5F2F66
:100FD000080029308400803085003E3086000030D3
:100FE00087000930803109208731C701C801C90154
:100FF000CA01CB01CC01CD01CE0120008131812974
:101FE8002400951208001630210097000800F00020
:101FF8007008240091000800003440340134003493
:020000040001F9
:08000000FF3FFF3FFF3FFF3F00
:08000E00EC3FF33FFF3FFF3F11
:00000001FF
